{
  "address": "0xD9130aE897D1350CC11817cFBcBc3D36c1D842ED",
  "abi": [
    {
      "inputs": [
        {
          "internalType": "contract BobaTuringCredit",
          "name": "_turingCredit",
          "type": "address"
        }
      ],
      "stateMutability": "nonpayable",
      "type": "constructor"
    },
    {
      "anonymous": false,
      "inputs": [
        {
          "indexed": false,
          "internalType": "uint256",
          "name": "subscriptionId",
          "type": "uint256"
        },
        {
          "indexed": false,
          "internalType": "uint256",
          "name": "amount",
          "type": "uint256"
        },
        {
          "indexed": false,
          "internalType": "address",
          "name": "from",
          "type": "address"
        }
      ],
      "name": "CreditAdded",
      "type": "event"
    },
    {
      "anonymous": false,
      "inputs": [
        {
          "indexed": false,
          "internalType": "uint256",
          "name": "subscriptionId",
          "type": "uint256"
        },
        {
          "indexed": false,
          "internalType": "address",
          "name": "owner",
          "type": "address"
        }
      ],
      "name": "OwnerAdded",
      "type": "event"
    },
    {
      "anonymous": false,
      "inputs": [
        {
          "indexed": false,
          "internalType": "uint256",
          "name": "subscriptionId",
          "type": "uint256"
        },
        {
          "indexed": false,
          "internalType": "address",
          "name": "owner",
          "type": "address"
        }
      ],
      "name": "OwnerRemoved",
      "type": "event"
    },
    {
      "anonymous": false,
      "inputs": [
        {
          "indexed": false,
          "internalType": "uint256",
          "name": "subscriptionId",
          "type": "uint256"
        },
        {
          "indexed": false,
          "internalType": "address",
          "name": "callder",
          "type": "address"
        }
      ],
      "name": "PermitedCallerAdded",
      "type": "event"
    },
    {
      "anonymous": false,
      "inputs": [
        {
          "indexed": false,
          "internalType": "uint256",
          "name": "subscriptionId",
          "type": "uint256"
        },
        {
          "indexed": false,
          "internalType": "address",
          "name": "callder",
          "type": "address"
        }
      ],
      "name": "PermitedCallerRemoved",
      "type": "event"
    },
    {
      "anonymous": false,
      "inputs": [
        {
          "indexed": false,
          "internalType": "uint256",
          "name": "subscriptionId",
          "type": "uint256"
        },
        {
          "indexed": false,
          "internalType": "address",
          "name": "user",
          "type": "address"
        }
      ],
      "name": "SubscriptionCanceled",
      "type": "event"
    },
    {
      "anonymous": false,
      "inputs": [
        {
          "indexed": false,
          "internalType": "uint256",
          "name": "subscriptionId",
          "type": "uint256"
        },
        {
          "indexed": false,
          "internalType": "address",
          "name": "user",
          "type": "address"
        }
      ],
      "name": "SubscriptionCreated",
      "type": "event"
    },
    {
      "inputs": [
        {
          "internalType": "uint256",
          "name": "index",
          "type": "uint256"
        }
      ],
      "name": "activeSubscriptionByIndex",
      "outputs": [
        {
          "internalType": "uint256",
          "name": "",
          "type": "uint256"
        }
      ],
      "stateMutability": "view",
      "type": "function"
    },
    {
      "inputs": [],
      "name": "activeSubscriptionCount",
      "outputs": [
        {
          "internalType": "uint256",
          "name": "",
          "type": "uint256"
        }
      ],
      "stateMutability": "view",
      "type": "function"
    },
    {
      "inputs": [
        {
          "internalType": "uint256",
          "name": "subscriptionId",
          "type": "uint256"
        },
        {
          "internalType": "uint256",
          "name": "_addBalanceAmount",
          "type": "uint256"
        }
      ],
      "name": "addBalanceToSubscription",
      "outputs": [],
      "stateMutability": "nonpayable",
      "type": "function"
    },
    {
      "inputs": [
        {
          "internalType": "uint256",
          "name": "subscriptionId",
          "type": "uint256"
        },
        {
          "internalType": "address",
          "name": "_callerAddress",
          "type": "address"
        }
      ],
      "name": "addPermittedCaller",
      "outputs": [],
      "stateMutability": "nonpayable",
      "type": "function"
    },
    {
      "inputs": [
        {
          "internalType": "uint256",
          "name": "subscriptionId",
          "type": "uint256"
        },
        {
          "internalType": "address",
          "name": "_owner",
          "type": "address"
        }
      ],
      "name": "addSubscriptionOnwer",
      "outputs": [],
      "stateMutability": "nonpayable",
      "type": "function"
    },
    {
      "inputs": [
        {
          "internalType": "uint256",
          "name": "subscriptionId",
          "type": "uint256"
        }
      ],
      "name": "cancelSubscriptionId",
      "outputs": [],
      "stateMutability": "nonpayable",
      "type": "function"
    },
    {
      "inputs": [
        {
          "internalType": "uint256",
          "name": "subscriptionId",
          "type": "uint256"
        },
        {
          "internalType": "address",
          "name": "_callerAddress",
          "type": "address"
        }
      ],
      "name": "checkPermittedCaller",
      "outputs": [
        {
          "internalType": "bool",
          "name": "",
          "type": "bool"
        }
      ],
      "stateMutability": "view",
      "type": "function"
    },
    {
      "inputs": [],
      "name": "createSubscription",
      "outputs": [
        {
          "internalType": "uint256",
          "name": "subscriptionId",
          "type": "uint256"
        }
      ],
      "stateMutability": "nonpayable",
      "type": "function"
    },
    {
      "inputs": [
        {
          "internalType": "uint256",
          "name": "subscriptionId",
          "type": "uint256"
        }
      ],
      "name": "getSubscriptionCreditAmount",
      "outputs": [
        {
          "internalType": "uint256",
          "name": "",
          "type": "uint256"
        }
      ],
      "stateMutability": "view",
      "type": "function"
    },
    {
      "inputs": [
        {
          "internalType": "uint256",
          "name": "subscriptionId",
          "type": "uint256"
        }
      ],
      "name": "getSubscriptionTuringHelper",
      "outputs": [
        {
          "internalType": "address",
          "name": "",
          "type": "address"
        }
      ],
      "stateMutability": "view",
      "type": "function"
    },
    {
      "inputs": [],
      "name": "numSubscriptionCreated",
      "outputs": [
        {
          "internalType": "uint256",
          "name": "",
          "type": "uint256"
        }
      ],
      "stateMutability": "view",
      "type": "function"
    },
    {
      "inputs": [
        {
          "internalType": "address",
          "name": "owner",
          "type": "address"
        },
        {
          "internalType": "uint256",
          "name": "index",
          "type": "uint256"
        }
      ],
      "name": "ownedSubscriptionByIndex",
      "outputs": [
        {
          "internalType": "uint256",
          "name": "",
          "type": "uint256"
        }
      ],
      "stateMutability": "view",
      "type": "function"
    },
    {
      "inputs": [
        {
          "internalType": "address",
          "name": "owner",
          "type": "address"
        }
      ],
      "name": "ownedSubscriptionCount",
      "outputs": [
        {
          "internalType": "uint256",
          "name": "",
          "type": "uint256"
        }
      ],
      "stateMutability": "view",
      "type": "function"
    },
    {
      "inputs": [
        {
          "internalType": "uint256",
          "name": "subscriptionId",
          "type": "uint256"
        },
        {
          "internalType": "address",
          "name": "_callerAddress",
          "type": "address"
        }
      ],
      "name": "removePermittedCaller",
      "outputs": [],
      "stateMutability": "nonpayable",
      "type": "function"
    },
    {
      "inputs": [
        {
          "internalType": "uint256",
          "name": "subscriptionId",
          "type": "uint256"
        },
        {
          "internalType": "address",
          "name": "_owner",
          "type": "address"
        }
      ],
      "name": "removeSubscriptionOnwer",
      "outputs": [],
      "stateMutability": "nonpayable",
      "type": "function"
    },
    {
      "inputs": [
        {
          "internalType": "uint256",
          "name": "subscriptionId",
          "type": "uint256"
        },
        {
          "internalType": "uint256",
          "name": "index",
          "type": "uint256"
        }
      ],
      "name": "subscriptionOwnerByIndex",
      "outputs": [
        {
          "internalType": "address",
          "name": "",
          "type": "address"
        }
      ],
      "stateMutability": "view",
      "type": "function"
    },
    {
      "inputs": [
        {
          "internalType": "uint256",
          "name": "subscriptionId",
          "type": "uint256"
        }
      ],
      "name": "subscriptionOwnerCount",
      "outputs": [
        {
          "internalType": "uint256",
          "name": "",
          "type": "uint256"
        }
      ],
      "stateMutability": "view",
      "type": "function"
    },
    {
      "inputs": [
        {
          "internalType": "uint256",
          "name": "subscriptionId",
          "type": "uint256"
        },
        {
          "internalType": "uint256",
          "name": "index",
          "type": "uint256"
        }
      ],
      "name": "subscriptionPermittedCallerByIndex",
      "outputs": [
        {
          "internalType": "address",
          "name": "",
          "type": "address"
        }
      ],
      "stateMutability": "view",
      "type": "function"
    },
    {
      "inputs": [
        {
          "internalType": "uint256",
          "name": "subscriptionId",
          "type": "uint256"
        }
      ],
      "name": "subscriptionPermittedCallerCount",
      "outputs": [
        {
          "internalType": "uint256",
          "name": "",
          "type": "uint256"
        }
      ],
      "stateMutability": "view",
      "type": "function"
    },
    {
      "inputs": [],
      "name": "turingCredit",
      "outputs": [
        {
          "internalType": "contract BobaTuringCredit",
          "name": "",
          "type": "address"
        }
      ],
      "stateMutability": "view",
      "type": "function"
    }
  ],
  "transactionHash": "0xeaea16abbe00e0ff8aad81bb85f46f8a7c4baccccfdb40b8a55d7979e9d2bee8",
  "args": [
    "0x208c3CE906cd85362bd29467819d3AcbE5FC1614"
  ],
  "numDeployments": 4,
  "solcInputHash": "781d8defe7fed5eb9a204d2acb20fdbd",
  "bytecode": "0x60a060405234801561001057600080fd5b506040516126ed3803806126ed83398101604081905261002f91610040565b6001600160a01b0316608052610070565b60006020828403121561005257600080fd5b81516001600160a01b038116811461006957600080fd5b9392505050565b6080516126466100a76000396000818161016601528181610817015281816109bf01528181610a7c0152610b3e01526126466000f3fe608060405234801561001057600080fd5b506004361061012c5760003560e01c80637f5014ef116100ad578063b5a2b66c11610071578063b5a2b66c1461027f578063e8cede6714610292578063f51e5387146102a5578063f72dd8d3146102b8578063f918024f146102cb57600080fd5b80637f5014ef1461023657806389975a4c146102495780638a8a1bfa1461025c578063a21a23e41461026f578063b16abdd41461027757600080fd5b80634d537d61116100f45780634d537d61146101c55780635263b09c146101d85780635b9d2cc2146101ed57806362eeab3d1461020057806373687cb61461022357600080fd5b8063098435d41461013157806316e54cb314610161578063239725ec146101885780632fcceac8146101a95780634395a9f6146101b2575b600080fd5b61014461013f3660046111a9565b6102de565b6040516001600160a01b0390911681526020015b60405180910390f35b6101447f000000000000000000000000000000000000000000000000000000000000000081565b61019b6101963660046111e3565b610331565b604051908152602001610158565b61019b60005481565b6101446101c0366004611200565b610358565b6101446101d33660046111a9565b61039f565b6101eb6101e6366004611200565b6103e1565b005b6101eb6101fb366004611219565b6104f1565b61021361020e366004611219565b6105f4565b6040519015158152602001610158565b61019b610231366004611200565b610636565b6101eb610244366004611219565b61067e565b6101eb610257366004611219565b610778565b61019b61026a366004611200565b6107be565b61019b610893565b61019b610953565b61019b61028d366004611249565b610964565b61019b6102a0366004611200565b610986565b6101eb6102b33660046111a9565b610993565b6101eb6102c6366004611219565b610be2565b61019b6102d9366004611200565b610c23565b6000826102ec600282610c64565b6103115760405162461bcd60e51b815260040161030890611275565b60405180910390fd5b60008481526006602052604090206103299084610c7c565b949350505050565b6001600160a01b038116600090815260046020526040812061035290610c88565b92915050565b600081610366600282610c64565b6103825760405162461bcd60e51b815260040161030890611275565b50506000908152600160205260409020546001600160a01b031690565b6000826103ad600282610c64565b6103c95760405162461bcd60e51b815260040161030890611275565b60008481526005602052604090206103299084610c7c565b33600090815260046020526040902081906103fc9082610c64565b6104185760405162461bcd60e51b8152600401610308906112bd565b6000828152600160205260409081902054905163f2fde38b60e01b81523360048201526001600160a01b039091169063f2fde38b90602401600060405180830381600087803b15801561046a57600080fd5b505af115801561047e573d6000803e3d6000fd5b505050600083815260016020526040902080546001600160a01b0319169055506104a9600283610c92565b506104b48233610c9e565b604080518381523360208201527f2043d2a8bc1d9bff79c046beecddb6becbd61f16f35ab1f173c92ebab285161491015b60405180910390a15050565b336000908152600460205260409020829061050c9082610c64565b6105285760405162461bcd60e51b8152600401610308906112bd565b6000838152600160205260409081902054905163aadebcb960e01b81526001600160a01b0384811660048301529091169063aadebcb990602401600060405180830381600087803b15801561057c57600080fd5b505af1158015610590573d6000803e3d6000fd5b50505060008481526006602052604090206105ac915083610d18565b50604080518481526001600160a01b03841660208201527fef3ee9243fc9277aefc8bceeb816baa7c577c6612f2489a67d2fd10aaad2f53991015b60405180910390a1505050565b600082610602600282610c64565b61061e5760405162461bcd60e51b815260040161030890611275565b60008481526006602052604090206103299084610d2d565b600081610644600282610c64565b6106605760405162461bcd60e51b815260040161030890611275565b600083815260066020526040902061067790610c88565b9392505050565b33600090815260046020526040902082906106999082610c64565b6106b55760405162461bcd60e51b8152600401610308906112bd565b6000838152600160205260409081902054905163a432ee2760e01b81526001600160a01b0384811660048301529091169063a432ee2790602401600060405180830381600087803b15801561070957600080fd5b505af115801561071d573d6000803e3d6000fd5b5050506000848152600660205260409020610739915083610d4f565b50604080518481526001600160a01b03841660208201527fdab382f3e13cc260e2577b99019e313fe8026747cd0c1fbca340f0316a4d4e9a91016105e7565b33600090815260046020526040902082906107939082610c64565b6107af5760405162461bcd60e51b8152600401610308906112bd565b6107b98383610d64565b505050565b6000816107cc600282610c64565b6107e85760405162461bcd60e51b815260040161030890611275565b6000838152600160205260409081902054905163a52b962d60e01b81526001600160a01b0391821660048201527f00000000000000000000000000000000000000000000000000000000000000009091169063a52b962d9060240160206040518083038186803b15801561085b57600080fd5b505afa15801561086f573d6000803e3d6000fd5b505050506040513d601f19601f820116820180604052508101906106779190611327565b6000806040516108a29061119c565b604051809103906000f0801580156108be573d6000803e3d6000fd5b50600080548082526001602052604090912080546001600160a01b0319166001600160a01b038416179055925090506108f8600283610dde565b506109038233610d64565b60008054908061091283611356565b9091555050604080518381523360208201527f1d3015d7ba850fa198dc7b1a3f5d42779313a681035f77c8c03764c61005518d910160405180910390a15090565b600061095f6002610c88565b905090565b6001600160a01b03821660009081526004602052604081206106779083610c7c565b6000610352600283610c7c565b8161099f600282610c64565b6109bb5760405162461bcd60e51b815260040161030890611275565b60007f00000000000000000000000000000000000000000000000000000000000000006001600160a01b031663853383926040518163ffffffff1660e01b815260040160206040518083038186803b158015610a1657600080fd5b505afa158015610a2a573d6000803e3d6000fd5b505050506040513d601f19601f82011682018060405250810190610a4e9190611371565b9050610a656001600160a01b038216333086610dea565b60405163095ea7b360e01b81526001600160a01b037f0000000000000000000000000000000000000000000000000000000000000000811660048301526024820185905282169063095ea7b390604401602060405180830381600087803b158015610acf57600080fd5b505af1158015610ae3573d6000803e3d6000fd5b505050506040513d601f19601f82011682018060405250810190610b07919061138e565b5060008481526001602052604090819020549051631fb1244f60e31b8152600481018590526001600160a01b0391821660248201527f00000000000000000000000000000000000000000000000000000000000000009091169063fd89227890604401600060405180830381600087803b158015610b8457600080fd5b505af1158015610b98573d6000803e3d6000fd5b50506040805187815260208101879052338183015290517f3ea1799d014b4e00a081ffd3ae4fea96220ca86ca51c52cea240ec128c08c88d9350908190036060019150a150505050565b3360009081526004602052604090208290610bfd9082610c64565b610c195760405162461bcd60e51b8152600401610308906112bd565b6107b98383610c9e565b600081610c31600282610c64565b610c4d5760405162461bcd60e51b815260040161030890611275565b600083815260056020526040902061067790610c88565b60008181526001830160205260408120541515610677565b60006106778383610e4a565b6000610352825490565b60006106778383610e74565b6001600160a01b0381166000908152600460205260409020610cc09083610c92565b506000828152600560205260409020610cd99082610d18565b50604080518381526001600160a01b03831660208201527f2d2f043cb8f93c6464e5ce5b93e72c2863eeb044241ea316d2a5a9af9320712191016104e5565b6000610677836001600160a01b038416610e74565b6001600160a01b03811660009081526001830160205260408120541515610677565b6000610677836001600160a01b038416610f67565b6001600160a01b0381166000908152600460205260409020610d869083610dde565b506000828152600560205260409020610d9f9082610d4f565b50604080518381526001600160a01b03831660208201527fab7a51f59a55e3b65bbabf99457f8955ff12366d20e368988c35d2eab9bd8df991016104e5565b60006106778383610f67565b604080516001600160a01b0385811660248301528416604482015260648082018490528251808303909101815260849091019091526020810180516001600160e01b03166323b872dd60e01b179052610e44908590610fb6565b50505050565b6000826000018281548110610e6157610e616113b0565b9060005260206000200154905092915050565b60008181526001830160205260408120548015610f5d576000610e986001836113c6565b8554909150600090610eac906001906113c6565b9050818114610f11576000866000018281548110610ecc57610ecc6113b0565b9060005260206000200154905080876000018481548110610eef57610eef6113b0565b6000918252602080832090910192909255918252600188019052604090208390555b8554869080610f2257610f226113dd565b600190038181906000526020600020016000905590558560010160008681526020019081526020016000206000905560019350505050610352565b6000915050610352565b6000818152600183016020526040812054610fae57508154600181810184556000848152602080822090930184905584548482528286019093526040902091909155610352565b506000610352565b600061100b826040518060400160405280602081526020017f5361666545524332303a206c6f772d6c6576656c2063616c6c206661696c6564815250856001600160a01b03166110889092919063ffffffff16565b8051909150156107b95780806020019051810190611029919061138e565b6107b95760405162461bcd60e51b815260206004820152602a60248201527f5361666545524332303a204552433230206f7065726174696f6e20646964206e6044820152691bdd081cdd58d8d9595960b21b6064820152608401610308565b60606103298484600085856001600160a01b0385163b6110ea5760405162461bcd60e51b815260206004820152601d60248201527f416464726573733a2063616c6c20746f206e6f6e2d636f6e74726163740000006044820152606401610308565b600080866001600160a01b03168587604051611106919061141f565b60006040518083038185875af1925050503d8060008114611143576040519150601f19603f3d011682016040523d82523d6000602084013e611148565b606091505b5091509150611158828286611163565b979650505050505050565b60608315611172575081610677565b8251156111825782518084602001fd5b8160405162461bcd60e51b8152600401610308919061143b565b6111a28061146f83390190565b600080604083850312156111bc57600080fd5b50508035926020909101359150565b6001600160a01b03811681146111e057600080fd5b50565b6000602082840312156111f557600080fd5b8135610677816111cb565b60006020828403121561121257600080fd5b5035919050565b6000806040838503121561122c57600080fd5b82359150602083013561123e816111cb565b809150509250929050565b6000806040838503121561125c57600080fd5b8235611267816111cb565b946020939093013593505050565b60208082526028908201527f547572696e67537562736372697074696f6e3a20696e6163746976652073756260408201526731b934b83a34b7b760c11b606082015260800190565b60208082526044908201527f547572696e67537562736372697074696f6e3a206d73672e73656e646572206960408201527f73206e6f7420746865206f776e6572206f66207468652073756273637269707460608201526334b7b71760e11b608082015260a00190565b60006020828403121561133957600080fd5b5051919050565b634e487b7160e01b600052601160045260246000fd5b600060001982141561136a5761136a611340565b5060010190565b60006020828403121561138357600080fd5b8151610677816111cb565b6000602082840312156113a057600080fd5b8151801515811461067757600080fd5b634e487b7160e01b600052603260045260246000fd5b6000828210156113d8576113d8611340565b500390565b634e487b7160e01b600052603160045260246000fd5b60005b8381101561140e5781810151838201526020016113f6565b83811115610e445750506000910152565b600082516114318184602087016113f3565b9190910192915050565b602081526000825180602084015261145a8160408501602087016113f3565b601f01601f1916919091016040019291505056fe608060405234801561001057600080fd5b5061001a33610031565b600180546001600160a01b03191630179055610081565b600080546001600160a01b038381166001600160a01b0319831681178455604051919092169283917f8be0079c531659141344cd1fd0a4f28419497f9722a3daafe3b4186f6b6457e09190a35050565b611112806100906000396000f3fe608060405234801561001057600080fd5b50600436106100ea5760003560e01c8063a432ee271161008c578063cbcd0c2c11610066578063cbcd0c2c146101c6578063e86f18991461014d578063f2f3fa07146101d9578063f2fde38b146101fc57600080fd5b8063a432ee2714610198578063aadebcb9146101ab578063b8d16056146101be57600080fd5b8063493d57d6116100c8578063493d57d61461014d578063715018a6146101605780637d93616c1461016a5780638da5cb5b1461017d57600080fd5b806301ffc9a7146100ef5780632f7adf431461011757806345ff812a14610137575b600080fd5b6101026100fd366004610c56565b61020f565b60405190151581526020015b60405180910390f35b61012a610125366004610d4c565b61026d565b60405161010e9190610e0c565b61013f6103c9565b60405190815260200161010e565b61013f61015b366004610e33565b6104c5565b61016861051f565b005b61012a610178366004610e5d565b610555565b6000546040516001600160a01b03909116815260200161010e565b6101686101a6366004610ed1565b610601565b6101686101b9366004610ed1565b610686565b61013f610701565b6101026101d4366004610ed1565b6107f0565b6101026101e7366004610ed1565b60026020526000908152604090205460ff1681565b61016861020a366004610ed1565b610853565b60007f01ffc9a7a5cef8baa21ed3c5c0d7e23accb804b619e9333b597f47a0d84076e2632f7adf4360e01b6001600160e01b031984166301ffc9a760e01b148061026557506001600160e01b0319848116908216145b949350505050565b3360009081526002602052604090205460609060ff166102a85760405162461bcd60e51b815260040161029f90610efa565b60405180910390fd5b60008251116102f95760405162461bcd60e51b815260206004820152601a60248201527f547572696e673a547572696e6754783a6e6f207061796c6f6164000000000000604482015260640161029f565b60018054604051631f64d85b60e21b81526000926001600160a01b0390921691637d93616c91610330919088908890600401610f2a565b600060405180830381600087803b15801561034a57600080fd5b505af115801561035e573d6000803e3d6000fd5b505050506040513d6000823e601f3d908101601f191682016040526103869190810190610f65565b90507ffde6d9b9b674fe8a495a825379378eb214e03439d12f342ac5e8af9768c1d85c6001826040516103ba929190610fdc565b60405180910390a19392505050565b3360009081526002602052604081205460ff166103f85760405162461bcd60e51b815260040161029f90610efa565b6001805460405163249eabeb60e11b81526004810192909252600060248301819052916001600160a01b039091169063493d57d690604401602060405180830381600087803b15801561044a57600080fd5b505af115801561045e573d6000803e3d6000fd5b505050506040513d601f19601f820116820180604052508101906104829190610ff5565b6040805160018152602081018390529192507f450d62889c3a6e19c9586840ce9c21040b90d81950fe31f2ba982090adaf53e891015b60405180910390a1905090565b60003330146104e65760405162461bcd60e51b815260040161029f9061100e565b8263ffffffff166002146104f9846108ee565b906105175760405162461bcd60e51b815260040161029f9190610e0c565b509092915050565b6000546001600160a01b031633146105495760405162461bcd60e51b815260040161029f9061105c565b6105536000610c06565b565b60603330146105765760405162461bcd60e51b815260040161029f9061100e565b60008251116105c75760405162461bcd60e51b815260206004820152601d60248201527f547572696e673a476574526573706f6e73653a6e6f207061796c6f6164000000604482015260640161029f565b8363ffffffff166002146105da856108ee565b906105f85760405162461bcd60e51b815260040161029f9190610e0c565b50909392505050565b6000546001600160a01b0316331461062b5760405162461bcd60e51b815260040161029f9061105c565b6001600160a01b038116600081815260026020908152604091829020805460ff1916600117905590519182527f9ce84a7ab8065f5f6f23c19be05400b2edbabf71e4b29837f56a016c951b97d291015b60405180910390a150565b6000546001600160a01b031633146106b05760405162461bcd60e51b815260040161029f9061105c565b6001600160a01b038116600081815260026020908152604091829020805460ff1916905590519182527feacddceebef9fdf16961c5dba55871a098bd93be9160335139bdeb226537c6ed910161067b565b3360009081526002602052604081205460ff166107305760405162461bcd60e51b815260040161029f90610efa565b60015460405163e86f189960e01b815260026004820152602a60248201526000916001600160a01b03169063e86f189990604401602060405180830381600087803b15801561077e57600080fd5b505af1158015610792573d6000803e3d6000fd5b505050506040513d601f19601f820116820180604052508101906107b69190610ff5565b6040805160018152602081018390529192507fcf56007112ef7f986f258f82114b449a536da425cefac3982f64e306b07c792191016104b8565b6001600160a01b038116600081815260026020908152604080832054815194855260ff1680151592850192909252919290917fabf082f4a354a0ea137bf1c9b0f6660d1340b3f84e293fb4a4cb01c7602c3962910160405180910390a192915050565b6000546001600160a01b0316331461087d5760405162461bcd60e51b815260040161029f9061105c565b6001600160a01b0381166108e25760405162461bcd60e51b815260206004820152602660248201527f4f776e61626c653a206e6577206f776e657220697320746865207a65726f206160448201526564647265737360d01b606482015260840161029f565b6108eb81610c06565b50565b60608163ffffffff166001141561093857505060408051808201909152601e81527f545552494e473a204765746820696e74657263657074206661696c7572650000602082015290565b8163ffffffff16600a141561098057505060408051808201909152601d81527f545552494e473a20496e636f727265637420696e707574207374617465000000602082015290565b8163ffffffff16600b14156109c857505060408051808201909152601a81527f545552494e473a2043616c6c6461746120746f6f2073686f7274000000000000602082015290565b8163ffffffff16600c1415610a08575050604080518082019091526015815274545552494e473a2055524c203e363420627974657360581b602082015290565b8163ffffffff16600d1415610a475750506040805180820190915260148152732a2aa924a7239d1029b2b93b32b91032b93937b960611b602082015290565b8163ffffffff16600e1415610a75576040518060600160405280602881526020016110926028913992915050565b8163ffffffff16600f1415610aa3576040518060600160405280602381526020016110ba6023913992915050565b8163ffffffff1660101415610ae1575050604080518082019091526013815272545552494e473a20524e47206661696c75726560681b602082015290565b8163ffffffff1660111415610b2957505060408051808201909152601f81527f545552494e473a2041504920526573706f6e7365203e33323220636861727300602082015290565b8163ffffffff1660121415610b7157505060408051808201909152601f81527f545552494e473a2041504920526573706f6e7365203e31363020627974657300602082015290565b8163ffffffff1660131415610bb957505060408051808201909152601b81527f545552494e473a20496e73756666696369656e74206372656469740000000000602082015290565b8163ffffffff1660141415610c0157505060408051808201909152601b81527f545552494e473a204d697373696e6720636163686520656e7472790000000000602082015290565b919050565b600080546001600160a01b038381166001600160a01b0319831681178455604051919092169283917f8be0079c531659141344cd1fd0a4f28419497f9722a3daafe3b4186f6b6457e09190a35050565b600060208284031215610c6857600080fd5b81356001600160e01b031981168114610c8057600080fd5b9392505050565b634e487b7160e01b600052604160045260246000fd5b604051601f8201601f1916810167ffffffffffffffff81118282101715610cc657610cc6610c87565b604052919050565b600067ffffffffffffffff821115610ce857610ce8610c87565b50601f01601f191660200190565b600082601f830112610d0757600080fd5b8135610d1a610d1582610cce565b610c9d565b818152846020838601011115610d2f57600080fd5b816020850160208301376000918101602001919091529392505050565b60008060408385031215610d5f57600080fd5b823567ffffffffffffffff80821115610d7757600080fd5b610d8386838701610cf6565b93506020850135915080821115610d9957600080fd5b50610da685828601610cf6565b9150509250929050565b60005b83811015610dcb578181015183820152602001610db3565b83811115610dda576000848401525b50505050565b60008151808452610df8816020860160208601610db0565b601f01601f19169290920160200192915050565b602081526000610c806020830184610de0565b803563ffffffff81168114610c0157600080fd5b60008060408385031215610e4657600080fd5b610e4f83610e1f565b946020939093013593505050565b600080600060608486031215610e7257600080fd5b610e7b84610e1f565b9250602084013567ffffffffffffffff80821115610e9857600080fd5b610ea487838801610cf6565b93506040860135915080821115610eba57600080fd5b50610ec786828701610cf6565b9150509250925092565b600060208284031215610ee357600080fd5b81356001600160a01b0381168114610c8057600080fd5b602080825260169082015275496e76616c69642043616c6c6572204164647265737360501b604082015260600190565b63ffffffff84168152606060208201526000610f496060830185610de0565b8281036040840152610f5b8185610de0565b9695505050505050565b600060208284031215610f7757600080fd5b815167ffffffffffffffff811115610f8e57600080fd5b8201601f81018413610f9f57600080fd5b8051610fad610d1582610cce565b818152856020838501011115610fc257600080fd5b610fd3826020830160208601610db0565b95945050505050565b8281526040602082015260006102656040830184610de0565b60006020828403121561100757600080fd5b5051919050565b6020808252602e908201527f547572696e673a476574526573706f6e73653a6d73672e73656e64657220213d60408201526d206164647265737328746869732960901b606082015260800190565b6020808252818101527f4f776e61626c653a2063616c6c6572206973206e6f7420746865206f776e657260408201526060019056fe545552494e473a20436f756c64206e6f74206465636f64652073657276657220726573706f6e7365545552494e473a20436f756c64206e6f74206372656174652072706320636c69656e74a2646970667358221220b491a9d9d86d717888f32582faab0b6ffcf3a82cccefea41d1a41524ca43be0864736f6c63430008090033a2646970667358221220c07f099291c9b5d33c941f954d2d67203c8373f69c54614cc7faa58393a7be4d64736f6c63430008090033",
  "devdoc": {
    "kind": "dev",
    "methods": {},
    "version": 1
  },
  "userdoc": {
    "kind": "user",
    "methods": {},
    "version": 1
  },
  "storageLayout": {
    "storage": [
      {
        "astId": 2608,
        "contract": "contracts/TuringSubscriptionManager.sol:TuringSubscriptionManager",
        "label": "numSubscriptionCreated",
        "offset": 0,
        "slot": "0",
        "type": "t_uint256"
      },
      {
        "astId": 2613,
        "contract": "contracts/TuringSubscriptionManager.sol:TuringSubscriptionManager",
        "label": "_subscription",
        "offset": 0,
        "slot": "1",
        "type": "t_mapping(t_uint256,t_contract(TuringHelper)2585)"
      },
      {
        "astId": 2616,
        "contract": "contracts/TuringSubscriptionManager.sol:TuringSubscriptionManager",
        "label": "_activeSubscription",
        "offset": 0,
        "slot": "2",
        "type": "t_struct(UintSet)1718_storage"
      },
      {
        "astId": 2621,
        "contract": "contracts/TuringSubscriptionManager.sol:TuringSubscriptionManager",
        "label": "_ownedSubscription",
        "offset": 0,
        "slot": "4",
        "type": "t_mapping(t_address,t_struct(UintSet)1718_storage)"
      },
      {
        "astId": 2626,
        "contract": "contracts/TuringSubscriptionManager.sol:TuringSubscriptionManager",
        "label": "_subscriptionOwner",
        "offset": 0,
        "slot": "5",
        "type": "t_mapping(t_uint256,t_struct(AddressSet)1561_storage)"
      },
      {
        "astId": 2631,
        "contract": "contracts/TuringSubscriptionManager.sol:TuringSubscriptionManager",
        "label": "_subscriptionPermittedCaller",
        "offset": 0,
        "slot": "6",
        "type": "t_mapping(t_uint256,t_struct(AddressSet)1561_storage)"
      }
    ],
    "types": {
      "t_address": {
        "encoding": "inplace",
        "label": "address",
        "numberOfBytes": "20"
      },
      "t_array(t_bytes32)dyn_storage": {
        "base": "t_bytes32",
        "encoding": "dynamic_array",
        "label": "bytes32[]",
        "numberOfBytes": "32"
      },
      "t_bytes32": {
        "encoding": "inplace",
        "label": "bytes32",
        "numberOfBytes": "32"
      },
      "t_contract(TuringHelper)2585": {
        "encoding": "inplace",
        "label": "contract TuringHelper",
        "numberOfBytes": "20"
      },
      "t_mapping(t_address,t_struct(UintSet)1718_storage)": {
        "encoding": "mapping",
        "key": "t_address",
        "label": "mapping(address => struct EnumerableSet.UintSet)",
        "numberOfBytes": "32",
        "value": "t_struct(UintSet)1718_storage"
      },
      "t_mapping(t_bytes32,t_uint256)": {
        "encoding": "mapping",
        "key": "t_bytes32",
        "label": "mapping(bytes32 => uint256)",
        "numberOfBytes": "32",
        "value": "t_uint256"
      },
      "t_mapping(t_uint256,t_contract(TuringHelper)2585)": {
        "encoding": "mapping",
        "key": "t_uint256",
        "label": "mapping(uint256 => contract TuringHelper)",
        "numberOfBytes": "32",
        "value": "t_contract(TuringHelper)2585"
      },
      "t_mapping(t_uint256,t_struct(AddressSet)1561_storage)": {
        "encoding": "mapping",
        "key": "t_uint256",
        "label": "mapping(uint256 => struct EnumerableSet.AddressSet)",
        "numberOfBytes": "32",
        "value": "t_struct(AddressSet)1561_storage"
      },
      "t_struct(AddressSet)1561_storage": {
        "encoding": "inplace",
        "label": "struct EnumerableSet.AddressSet",
        "members": [
          {
            "astId": 1560,
            "contract": "contracts/TuringSubscriptionManager.sol:TuringSubscriptionManager",
            "label": "_inner",
            "offset": 0,
            "slot": "0",
            "type": "t_struct(Set)1260_storage"
          }
        ],
        "numberOfBytes": "64"
      },
      "t_struct(Set)1260_storage": {
        "encoding": "inplace",
        "label": "struct EnumerableSet.Set",
        "members": [
          {
            "astId": 1255,
            "contract": "contracts/TuringSubscriptionManager.sol:TuringSubscriptionManager",
            "label": "_values",
            "offset": 0,
            "slot": "0",
            "type": "t_array(t_bytes32)dyn_storage"
          },
          {
            "astId": 1259,
            "contract": "contracts/TuringSubscriptionManager.sol:TuringSubscriptionManager",
            "label": "_indexes",
            "offset": 0,
            "slot": "1",
            "type": "t_mapping(t_bytes32,t_uint256)"
          }
        ],
        "numberOfBytes": "64"
      },
      "t_struct(UintSet)1718_storage": {
        "encoding": "inplace",
        "label": "struct EnumerableSet.UintSet",
        "members": [
          {
            "astId": 1717,
            "contract": "contracts/TuringSubscriptionManager.sol:TuringSubscriptionManager",
            "label": "_inner",
            "offset": 0,
            "slot": "0",
            "type": "t_struct(Set)1260_storage"
          }
        ],
        "numberOfBytes": "64"
      },
      "t_uint256": {
        "encoding": "inplace",
        "label": "uint256",
        "numberOfBytes": "32"
      }
    }
  }
}